{
  "_format": "hh-sol-artifact-1",
  "contractName": "Domains",
  "sourceName": "contracts/Domains.sol",
  "abi": [
    {
      "inputs": [
        {
          "internalType": "string",
          "name": "_maindomain",
          "type": "string"
        }
      ],
      "stateMutability": "payable",
      "type": "constructor"
    },
    {
      "inputs": [],
      "name": "AlreadyRegistered",
      "type": "error"
    },
    {
      "inputs": [
        {
          "internalType": "string",
          "name": "name",
          "type": "string"
        }
      ],
      "name": "InvalidName",
      "type": "error"
    },
    {
      "inputs": [],
      "name": "Unauthorized",
      "type": "error"
    },
    {
      "anonymous": false,
      "inputs": [
        {
          "indexed": true,
          "internalType": "address",
          "name": "owner",
          "type": "address"
        },
        {
          "indexed": true,
          "internalType": "address",
          "name": "approved",
          "type": "address"
        },
        {
          "indexed": true,
          "internalType": "uint256",
          "name": "tokenId",
          "type": "uint256"
        }
      ],
      "name": "Approval",
      "type": "event"
    },
    {
      "anonymous": false,
      "inputs": [
        {
          "indexed": true,
          "internalType": "address",
          "name": "owner",
          "type": "address"
        },
        {
          "indexed": true,
          "internalType": "address",
          "name": "operator",
          "type": "address"
        },
        {
          "indexed": false,
          "internalType": "bool",
          "name": "approved",
          "type": "bool"
        }
      ],
      "name": "ApprovalForAll",
      "type": "event"
    },
    {
      "anonymous": false,
      "inputs": [
        {
          "indexed": true,
          "internalType": "address",
          "name": "from",
          "type": "address"
        },
        {
          "indexed": true,
          "internalType": "address",
          "name": "to",
          "type": "address"
        },
        {
          "indexed": true,
          "internalType": "uint256",
          "name": "tokenId",
          "type": "uint256"
        }
      ],
      "name": "Transfer",
      "type": "event"
    },
    {
      "inputs": [
        {
          "internalType": "address",
          "name": "to",
          "type": "address"
        },
        {
          "internalType": "uint256",
          "name": "tokenId",
          "type": "uint256"
        }
      ],
      "name": "approve",
      "outputs": [],
      "stateMutability": "nonpayable",
      "type": "function"
    },
    {
      "inputs": [
        {
          "internalType": "address",
          "name": "owner",
          "type": "address"
        }
      ],
      "name": "balanceOf",
      "outputs": [
        {
          "internalType": "uint256",
          "name": "",
          "type": "uint256"
        }
      ],
      "stateMutability": "view",
      "type": "function"
    },
    {
      "inputs": [
        {
          "internalType": "string",
          "name": "",
          "type": "string"
        }
      ],
      "name": "domains",
      "outputs": [
        {
          "internalType": "address",
          "name": "",
          "type": "address"
        }
      ],
      "stateMutability": "view",
      "type": "function"
    },
    {
      "inputs": [
        {
          "internalType": "string",
          "name": "",
          "type": "string"
        }
      ],
      "name": "emails",
      "outputs": [
        {
          "internalType": "string",
          "name": "",
          "type": "string"
        }
      ],
      "stateMutability": "view",
      "type": "function"
    },
    {
      "inputs": [
        {
          "internalType": "string",
          "name": "name",
          "type": "string"
        }
      ],
      "name": "getAddress",
      "outputs": [
        {
          "internalType": "address",
          "name": "",
          "type": "address"
        }
      ],
      "stateMutability": "view",
      "type": "function"
    },
    {
      "inputs": [],
      "name": "getAllNames",
      "outputs": [
        {
          "internalType": "string[]",
          "name": "",
          "type": "string[]"
        }
      ],
      "stateMutability": "view",
      "type": "function"
    },
    {
      "inputs": [
        {
          "internalType": "uint256",
          "name": "tokenId",
          "type": "uint256"
        }
      ],
      "name": "getApproved",
      "outputs": [
        {
          "internalType": "address",
          "name": "",
          "type": "address"
        }
      ],
      "stateMutability": "view",
      "type": "function"
    },
    {
      "inputs": [
        {
          "internalType": "string",
          "name": "name",
          "type": "string"
        }
      ],
      "name": "getEmail",
      "outputs": [
        {
          "internalType": "string",
          "name": "",
          "type": "string"
        }
      ],
      "stateMutability": "view",
      "type": "function"
    },
    {
      "inputs": [
        {
          "internalType": "string",
          "name": "name",
          "type": "string"
        }
      ],
      "name": "getPFP",
      "outputs": [
        {
          "internalType": "string",
          "name": "",
          "type": "string"
        }
      ],
      "stateMutability": "view",
      "type": "function"
    },
    {
      "inputs": [
        {
          "internalType": "string",
          "name": "name",
          "type": "string"
        }
      ],
      "name": "getProfession",
      "outputs": [
        {
          "internalType": "string",
          "name": "",
          "type": "string"
        }
      ],
      "stateMutability": "view",
      "type": "function"
    },
    {
      "inputs": [
        {
          "internalType": "string",
          "name": "name",
          "type": "string"
        }
      ],
      "name": "getRecord",
      "outputs": [
        {
          "internalType": "string",
          "name": "",
          "type": "string"
        }
      ],
      "stateMutability": "view",
      "type": "function"
    },
    {
      "inputs": [
        {
          "internalType": "string",
          "name": "name",
          "type": "string"
        }
      ],
      "name": "getTwitter",
      "outputs": [
        {
          "internalType": "string",
          "name": "",
          "type": "string"
        }
      ],
      "stateMutability": "view",
      "type": "function"
    },
    {
      "inputs": [
        {
          "internalType": "address",
          "name": "owner",
          "type": "address"
        },
        {
          "internalType": "address",
          "name": "operator",
          "type": "address"
        }
      ],
      "name": "isApprovedForAll",
      "outputs": [
        {
          "internalType": "bool",
          "name": "",
          "type": "bool"
        }
      ],
      "stateMutability": "view",
      "type": "function"
    },
    {
      "inputs": [],
      "name": "isOwner",
      "outputs": [
        {
          "internalType": "bool",
          "name": "",
          "type": "bool"
        }
      ],
      "stateMutability": "view",
      "type": "function"
    },
    {
      "inputs": [
        {
          "internalType": "string",
          "name": "name",
          "type": "string"
        }
      ],
      "name": "isValid",
      "outputs": [
        {
          "internalType": "bool",
          "name": "",
          "type": "bool"
        }
      ],
      "stateMutability": "pure",
      "type": "function"
    },
    {
      "inputs": [],
      "name": "maindomain",
      "outputs": [
        {
          "internalType": "string",
          "name": "",
          "type": "string"
        }
      ],
      "stateMutability": "view",
      "type": "function"
    },
    {
      "inputs": [],
      "name": "name",
      "outputs": [
        {
          "internalType": "string",
          "name": "",
          "type": "string"
        }
      ],
      "stateMutability": "view",
      "type": "function"
    },
    {
      "inputs": [
        {
          "internalType": "uint256",
          "name": "",
          "type": "uint256"
        }
      ],
      "name": "names",
      "outputs": [
        {
          "internalType": "string",
          "name": "",
          "type": "string"
        }
      ],
      "stateMutability": "view",
      "type": "function"
    },
    {
      "inputs": [],
      "name": "owner",
      "outputs": [
        {
          "internalType": "address payable",
          "name": "",
          "type": "address"
        }
      ],
      "stateMutability": "view",
      "type": "function"
    },
    {
      "inputs": [
        {
          "internalType": "uint256",
          "name": "tokenId",
          "type": "uint256"
        }
      ],
      "name": "ownerOf",
      "outputs": [
        {
          "internalType": "address",
          "name": "",
          "type": "address"
        }
      ],
      "stateMutability": "view",
      "type": "function"
    },
    {
      "inputs": [
        {
          "internalType": "string",
          "name": "",
          "type": "string"
        }
      ],
      "name": "pfp",
      "outputs": [
        {
          "internalType": "string",
          "name": "",
          "type": "string"
        }
      ],
      "stateMutability": "view",
      "type": "function"
    },
    {
      "inputs": [
        {
          "internalType": "string",
          "name": "name",
          "type": "string"
        }
      ],
      "name": "price",
      "outputs": [
        {
          "internalType": "uint256",
          "name": "",
          "type": "uint256"
        }
      ],
      "stateMutability": "pure",
      "type": "function"
    },
    {
      "inputs": [
        {
          "internalType": "string",
          "name": "",
          "type": "string"
        }
      ],
      "name": "professions",
      "outputs": [
        {
          "internalType": "string",
          "name": "",
          "type": "string"
        }
      ],
      "stateMutability": "view",
      "type": "function"
    },
    {
      "inputs": [
        {
          "internalType": "string",
          "name": "",
          "type": "string"
        }
      ],
      "name": "records",
      "outputs": [
        {
          "internalType": "string",
          "name": "",
          "type": "string"
        }
      ],
      "stateMutability": "view",
      "type": "function"
    },
    {
      "inputs": [
        {
          "internalType": "string",
          "name": "name",
          "type": "string"
        }
      ],
      "name": "register",
      "outputs": [],
      "stateMutability": "payable",
      "type": "function"
    },
    {
      "inputs": [
        {
          "internalType": "address",
          "name": "from",
          "type": "address"
        },
        {
          "internalType": "address",
          "name": "to",
          "type": "address"
        },
        {
          "internalType": "uint256",
          "name": "tokenId",
          "type": "uint256"
        }
      ],
      "name": "safeTransferFrom",
      "outputs": [],
      "stateMutability": "nonpayable",
      "type": "function"
    },
    {
      "inputs": [
        {
          "internalType": "address",
          "name": "from",
          "type": "address"
        },
        {
          "internalType": "address",
          "name": "to",
          "type": "address"
        },
        {
          "internalType": "uint256",
          "name": "tokenId",
          "type": "uint256"
        },
        {
          "internalType": "bytes",
          "name": "_data",
          "type": "bytes"
        }
      ],
      "name": "safeTransferFrom",
      "outputs": [],
      "stateMutability": "nonpayable",
      "type": "function"
    },
    {
      "inputs": [
        {
          "internalType": "address",
          "name": "operator",
          "type": "address"
        },
        {
          "internalType": "bool",
          "name": "approved",
          "type": "bool"
        }
      ],
      "name": "setApprovalForAll",
      "outputs": [],
      "stateMutability": "nonpayable",
      "type": "function"
    },
    {
      "inputs": [
        {
          "internalType": "string",
          "name": "name",
          "type": "string"
        },
        {
          "internalType": "string",
          "name": "email",
          "type": "string"
        }
      ],
      "name": "setEmail",
      "outputs": [],
      "stateMutability": "nonpayable",
      "type": "function"
    },
    {
      "inputs": [
        {
          "internalType": "string",
          "name": "name",
          "type": "string"
        },
        {
          "internalType": "string",
          "name": "pic",
          "type": "string"
        }
      ],
      "name": "setPFP",
      "outputs": [],
      "stateMutability": "nonpayable",
      "type": "function"
    },
    {
      "inputs": [
        {
          "internalType": "string",
          "name": "name",
          "type": "string"
        },
        {
          "internalType": "string",
          "name": "profession",
          "type": "string"
        }
      ],
      "name": "setProfession",
      "outputs": [],
      "stateMutability": "nonpayable",
      "type": "function"
    },
    {
      "inputs": [
        {
          "internalType": "string",
          "name": "name",
          "type": "string"
        },
        {
          "internalType": "string",
          "name": "record",
          "type": "string"
        }
      ],
      "name": "setRecord",
      "outputs": [],
      "stateMutability": "nonpayable",
      "type": "function"
    },
    {
      "inputs": [
        {
          "internalType": "string",
          "name": "name",
          "type": "string"
        },
        {
          "internalType": "string",
          "name": "handle",
          "type": "string"
        }
      ],
      "name": "setTwitter",
      "outputs": [],
      "stateMutability": "nonpayable",
      "type": "function"
    },
    {
      "inputs": [
        {
          "internalType": "bytes4",
          "name": "interfaceId",
          "type": "bytes4"
        }
      ],
      "name": "supportsInterface",
      "outputs": [
        {
          "internalType": "bool",
          "name": "",
          "type": "bool"
        }
      ],
      "stateMutability": "view",
      "type": "function"
    },
    {
      "inputs": [],
      "name": "symbol",
      "outputs": [
        {
          "internalType": "string",
          "name": "",
          "type": "string"
        }
      ],
      "stateMutability": "view",
      "type": "function"
    },
    {
      "inputs": [
        {
          "internalType": "uint256",
          "name": "tokenId",
          "type": "uint256"
        }
      ],
      "name": "tokenURI",
      "outputs": [
        {
          "internalType": "string",
          "name": "",
          "type": "string"
        }
      ],
      "stateMutability": "view",
      "type": "function"
    },
    {
      "inputs": [
        {
          "internalType": "address",
          "name": "from",
          "type": "address"
        },
        {
          "internalType": "address",
          "name": "to",
          "type": "address"
        },
        {
          "internalType": "uint256",
          "name": "tokenId",
          "type": "uint256"
        }
      ],
      "name": "transferFrom",
      "outputs": [],
      "stateMutability": "nonpayable",
      "type": "function"
    },
    {
      "inputs": [
        {
          "internalType": "string",
          "name": "",
          "type": "string"
        }
      ],
      "name": "twitter",
      "outputs": [
        {
          "internalType": "string",
          "name": "",
          "type": "string"
        }
      ],
      "stateMutability": "view",
      "type": "function"
    },
    {
      "inputs": [],
      "name": "withdraw",
      "outputs": [],
      "stateMutability": "nonpayable",
      "type": "function"
    }
  ],
  "bytecode": "0x6080604052604051806108a0016040528061086b81526020016200631e61086b9139600a908051906020019062000038929190620003b6565b506040518060400160405280600d81526020017f3c2f746578743e3c2f7376673e00000000000000000000000000000000000000815250600b908051906020019062000086929190620003b6565b5060405162006b8938038062006b898339818101604052810190620000ac919062000603565b6040518060400160405280601181526020017f50494b41204e616d6520536572766963650000000000000000000000000000008152506040518060400160405280600381526020017f504e530000000000000000000000000000000000000000000000000000000000815250816000908051906020019062000130929190620003b6565b50806001908051906020019062000149929190620003b6565b50505033600760006101000a81548173ffffffffffffffffffffffffffffffffffffffff021916908373ffffffffffffffffffffffffffffffffffffffff1602179055508060099080519060200190620001a5929190620003b6565b50620001f26040518060400160405280601881526020017f2573206e616d652073657276696365206465706c6f7965640000000000000000815250826200024460201b620028be1760201c565b6200023d6040518060400160405280600d81526020017f50494b4120434f4e545241435400000000000000000000000000000000000000815250620002ea60201b6200295a1760201c565b5062000775565b620002e682826040516024016200025d929190620006b1565b6040516020818303038152906040527f4b5c4277000000000000000000000000000000000000000000000000000000007bffffffffffffffffffffffffffffffffffffffffffffffffffffffff19166020820180517bffffffffffffffffffffffffffffffffffffffffffffffffffffffff83818316178352505050506200038d60201b60201c565b5050565b6200038a81604051602401620003019190620006ec565b6040516020818303038152906040527f41304fac000000000000000000000000000000000000000000000000000000007bffffffffffffffffffffffffffffffffffffffffffffffffffffffff19166020820180517bffffffffffffffffffffffffffffffffffffffffffffffffffffffff83818316178352505050506200038d60201b60201c565b50565b60008151905060006a636f6e736f6c652e6c6f679050602083016000808483855afa5050505050565b828054620003c4906200073f565b90600052602060002090601f016020900481019282620003e8576000855562000434565b82601f106200040357805160ff191683800117855562000434565b8280016001018555821562000434579182015b828111156200043357825182559160200191906001019062000416565b5b50905062000443919062000447565b5090565b5b808211156200046257600081600090555060010162000448565b5090565b6000604051905090565b600080fd5b600080fd5b600080fd5b600080fd5b6000601f19601f8301169050919050565b7f4e487b7100000000000000000000000000000000000000000000000000000000600052604160045260246000fd5b620004cf8262000484565b810181811067ffffffffffffffff82111715620004f157620004f062000495565b5b80604052505050565b60006200050662000466565b9050620005148282620004c4565b919050565b600067ffffffffffffffff82111562000537576200053662000495565b5b620005428262000484565b9050602081019050919050565b60005b838110156200056f57808201518184015260208101905062000552565b838111156200057f576000848401525b50505050565b60006200059c620005968462000519565b620004fa565b905082815260208101848484011115620005bb57620005ba6200047f565b5b620005c88482856200054f565b509392505050565b600082601f830112620005e857620005e76200047a565b5b8151620005fa84826020860162000585565b91505092915050565b6000602082840312156200061c576200061b62000470565b5b600082015167ffffffffffffffff8111156200063d576200063c62000475565b5b6200064b84828501620005d0565b91505092915050565b600081519050919050565b600082825260208201905092915050565b60006200067d8262000654565b6200068981856200065f565b93506200069b8185602086016200054f565b620006a68162000484565b840191505092915050565b60006040820190508181036000830152620006cd818562000670565b90508181036020830152620006e3818462000670565b90509392505050565b6000602082019050818103600083015262000708818462000670565b905092915050565b7f4e487b7100000000000000000000000000000000000000000000000000000000600052602260045260246000fd5b600060028204905060018216806200075857607f821691505b602082108114156200076f576200076e62000710565b5b50919050565b615b9980620007856000396000f3fe60806040526004361061022f5760003560e01c80638da5cb5b1161012e578063c87b56dd116100ab578063f1dfaefb1161006f578063f1dfaefb14610906578063f2c298be14610943578063f77e8bd71461095f578063fb825e5f1461099c578063fe2c6198146109c75761022f565b8063c87b56dd146107fb578063d35bfbd814610838578063d5b0d30d14610861578063e985e9c51461089e578063ef82ac94146108db5761022f565b8063a22cb465116100f2578063a22cb46514610706578063b88d4fde1461072f578063bf40fac114610758578063c1880a9814610795578063c8163c54146107be5761022f565b80638da5cb5b1461061f5780638f32d59b1461064a57806392f7424f14610675578063956a2349146106b257806395d89b41146106db5761022f565b80632e20459b116101bc57806353e69abc1161018057806353e69abc146104ee578063541e771d1461052b5780636352211e146105685780636423c0cf146105a557806370a08231146105e25761022f565b80632e20459b1461040b5780633b6e1c97146104485780633ccfd60b1461047157806342842e0e146104885780634622ab03146104b15761022f565b8063095ea7b311610203578063095ea7b3146103165780630965e66c1461033f57806311dd88451461036857806323b872dd146103a557806326449235146103ce5761022f565b8062b3242f1461023457806301ffc9a71461027157806306fdde03146102ae578063081812fc146102d9575b600080fd5b34801561024057600080fd5b5061025b60048036038101906102569190613ecc565b610a04565b6040516102689190613fb2565b60405180910390f35b34801561027d57600080fd5b506102986004803603810190610293919061402c565b610ab7565b6040516102a59190614074565b60405180910390f35b3480156102ba57600080fd5b506102c3610b99565b6040516102d09190613fb2565b60405180910390f35b3480156102e557600080fd5b5061030060048036038101906102fb91906140c5565b610c2b565b60405161030d9190614133565b60405180910390f35b34801561032257600080fd5b5061033d6004803603810190610338919061417a565b610cb0565b005b34801561034b57600080fd5b50610366600480360381019061036191906141ba565b610dc8565b005b34801561037457600080fd5b5061038f600480360381019061038a9190613ecc565b610e76565b60405161039c9190613fb2565b60405180910390f35b3480156103b157600080fd5b506103cc60048036038101906103c7919061423b565b610f29565b005b3480156103da57600080fd5b506103f560048036038101906103f091906143be565b610f89565b6040516104029190614133565b60405180910390f35b34801561041757600080fd5b50610432600480360381019061042d9190613ecc565b610fd2565b60405161043f9190613fb2565b60405180910390f35b34801561045457600080fd5b5061046f600480360381019061046a91906141ba565b611085565b005b34801561047d57600080fd5b50610486611133565b005b34801561049457600080fd5b506104af60048036038101906104aa919061423b565b611237565b005b3480156104bd57600080fd5b506104d860048036038101906104d391906140c5565b611257565b6040516104e59190613fb2565b60405180910390f35b3480156104fa57600080fd5b5061051560048036038101906105109190613ecc565b6112f7565b6040516105229190613fb2565b60405180910390f35b34801561053757600080fd5b50610552600480360381019061054d91906143be565b6113aa565b60405161055f9190613fb2565b60405180910390f35b34801561057457600080fd5b5061058f600480360381019061058a91906140c5565b611460565b60405161059c9190614133565b60405180910390f35b3480156105b157600080fd5b506105cc60048036038101906105c791906143be565b611512565b6040516105d99190613fb2565b60405180910390f35b3480156105ee57600080fd5b5061060960048036038101906106049190614407565b6115c8565b6040516106169190614443565b60405180910390f35b34801561062b57600080fd5b50610634611680565b604051610641919061447f565b60405180910390f35b34801561065657600080fd5b5061065f6116a6565b60405161066c9190614074565b60405180910390f35b34801561068157600080fd5b5061069c600480360381019061069791906143be565b6116fe565b6040516106a99190613fb2565b60405180910390f35b3480156106be57600080fd5b506106d960048036038101906106d491906141ba565b6117b4565b005b3480156106e757600080fd5b506106f0611862565b6040516106fd9190613fb2565b60405180910390f35b34801561071257600080fd5b5061072d600480360381019061072891906144c6565b6118f4565b005b34801561073b57600080fd5b50610756600480360381019061075191906145a7565b61190a565b005b34801561076457600080fd5b5061077f600480360381019061077a9190613ecc565b61196c565b60405161078c9190614133565b60405180910390f35b3480156107a157600080fd5b506107bc60048036038101906107b791906141ba565b6119b7565b005b3480156107ca57600080fd5b506107e560048036038101906107e091906143be565b611a92565b6040516107f29190613fb2565b60405180910390f35b34801561080757600080fd5b50610822600480360381019061081d91906140c5565b611b48565b60405161082f9190613fb2565b60405180910390f35b34801561084457600080fd5b5061085f600480360381019061085a91906141ba565b611c9a565b005b34801561086d57600080fd5b50610888600480360381019061088391906143be565b611d48565b6040516108959190613fb2565b60405180910390f35b3480156108aa57600080fd5b506108c560048036038101906108c0919061462a565b611dfe565b6040516108d29190614074565b60405180910390f35b3480156108e757600080fd5b506108f0611e92565b6040516108fd9190613fb2565b60405180910390f35b34801561091257600080fd5b5061092d60048036038101906109289190613ecc565b611f20565b60405161093a9190614074565b60405180910390f35b61095d60048036038101906109589190613ecc565b611fd4565b005b34801561096b57600080fd5b5061098660048036038101906109819190613ecc565b61258a565b6040516109939190613fb2565b60405180910390f35b3480156109a857600080fd5b506109b161263d565b6040516109be9190614776565b60405180910390f35b3480156109d357600080fd5b506109ee60048036038101906109e99190613ecc565b61281b565b6040516109fb9190614443565b60405180910390f35b606060118383604051610a189291906147c8565b90815260200160405180910390208054610a3190614810565b80601f0160208091040260200160405190810160405280929190818152602001828054610a5d90614810565b8015610aaa5780601f10610a7f57610100808354040283529160200191610aaa565b820191906000526020600020905b815481529060010190602001808311610a8d57829003601f168201915b5050505050905092915050565b60007f80ac58cd000000000000000000000000000000000000000000000000000000007bffffffffffffffffffffffffffffffffffffffffffffffffffffffff1916827bffffffffffffffffffffffffffffffffffffffffffffffffffffffff19161480610b8257507f5b5e139f000000000000000000000000000000000000000000000000000000007bffffffffffffffffffffffffffffffffffffffffffffffffffffffff1916827bffffffffffffffffffffffffffffffffffffffffffffffffffffffff1916145b80610b925750610b91826129f3565b5b9050919050565b606060008054610ba890614810565b80601f0160208091040260200160405190810160405280929190818152602001828054610bd490614810565b8015610c215780601f10610bf657610100808354040283529160200191610c21565b820191906000526020600020905b815481529060010190602001808311610c0457829003601f168201915b5050505050905090565b6000610c3682612a5d565b610c75576040517f08c379a0000000000000000000000000000000000000000000000000000000008152600401610c6c906148b4565b60405180910390fd5b6004600083815260200190815260200160002060009054906101000a900473ffffffffffffffffffffffffffffffffffffffff169050919050565b6000610cbb82611460565b90508073ffffffffffffffffffffffffffffffffffffffff168373ffffffffffffffffffffffffffffffffffffffff161415610d2c576040517f08c379a0000000000000000000000000000000000000000000000000000000008152600401610d2390614946565b60405180910390fd5b8073ffffffffffffffffffffffffffffffffffffffff16610d4b612ac9565b73ffffffffffffffffffffffffffffffffffffffff161480610d7a5750610d7981610d74612ac9565b611dfe565b5b610db9576040517f08c379a0000000000000000000000000000000000000000000000000000000008152600401610db0906149d8565b60405180910390fd5b610dc38383612ad1565b505050565b3373ffffffffffffffffffffffffffffffffffffffff16600c8585604051610df19291906147c8565b908152602001604051809103902060009054906101000a900473ffffffffffffffffffffffffffffffffffffffff1673ffffffffffffffffffffffffffffffffffffffff1614610e4057600080fd5b818160118686604051610e549291906147c8565b90815260200160405180910390209190610e6f929190613d2a565b5050505050565b6060600d8383604051610e8a9291906147c8565b90815260200160405180910390208054610ea390614810565b80601f0160208091040260200160405190810160405280929190818152602001828054610ecf90614810565b8015610f1c5780601f10610ef157610100808354040283529160200191610f1c565b820191906000526020600020905b815481529060010190602001808311610eff57829003601f168201915b5050505050905092915050565b610f3a610f34612ac9565b82612b8a565b610f79576040517f08c379a0000000000000000000000000000000000000000000000000000000008152600401610f7090614a6a565b60405180910390fd5b610f84838383612c68565b505050565b600c818051602081018201805184825260208301602085012081835280955050505050506000915054906101000a900473ffffffffffffffffffffffffffffffffffffffff1681565b606060108383604051610fe69291906147c8565b90815260200160405180910390208054610fff90614810565b80601f016020809104026020016040519081016040528092919081815260200182805461102b90614810565b80156110785780601f1061104d57610100808354040283529160200191611078565b820191906000526020600020905b81548152906001019060200180831161105b57829003601f168201915b5050505050905092915050565b3373ffffffffffffffffffffffffffffffffffffffff16600c85856040516110ae9291906147c8565b908152602001604051809103902060009054906101000a900473ffffffffffffffffffffffffffffffffffffffff1673ffffffffffffffffffffffffffffffffffffffff16146110fd57600080fd5b8181600f86866040516111119291906147c8565b9081526020016040518091039020919061112c929190613d2a565b5050505050565b61113b6116a6565b61114457600080fd5b6111826040518060400160405280601981526020017f686974207468652077697468647261772066756e6374696f6e0000000000000081525061295a565b600047905060003373ffffffffffffffffffffffffffffffffffffffff16826040516111ad90614abb565b60006040518083038185875af1925050503d80600081146111ea576040519150601f19603f3d011682016040523d82523d6000602084013e6111ef565b606091505b5050905080611233576040517f08c379a000000000000000000000000000000000000000000000000000000000815260040161122a90614b1c565b60405180910390fd5b5050565b6112528383836040518060200160405280600081525061190a565b505050565b6012602052806000526040600020600091509050805461127690614810565b80601f01602080910402602001604051908101604052809291908181526020018280546112a290614810565b80156112ef5780601f106112c4576101008083540402835291602001916112ef565b820191906000526020600020905b8154815290600101906020018083116112d257829003601f168201915b505050505081565b6060600f838360405161130b9291906147c8565b9081526020016040518091039020805461132490614810565b80601f016020809104026020016040519081016040528092919081815260200182805461135090614810565b801561139d5780601f106113725761010080835404028352916020019161139d565b820191906000526020600020905b81548152906001019060200180831161138057829003601f168201915b5050505050905092915050565b600d8180516020810182018051848252602083016020850120818352809550505050505060009150905080546113df90614810565b80601f016020809104026020016040519081016040528092919081815260200182805461140b90614810565b80156114585780601f1061142d57610100808354040283529160200191611458565b820191906000526020600020905b81548152906001019060200180831161143b57829003601f168201915b505050505081565b6000806002600084815260200190815260200160002060009054906101000a900473ffffffffffffffffffffffffffffffffffffffff169050600073ffffffffffffffffffffffffffffffffffffffff168173ffffffffffffffffffffffffffffffffffffffff161415611509576040517f08c379a000000000000000000000000000000000000000000000000000000000815260040161150090614bae565b60405180910390fd5b80915050919050565b601181805160208101820180518482526020830160208501208183528095505050505050600091509050805461154790614810565b80601f016020809104026020016040519081016040528092919081815260200182805461157390614810565b80156115c05780601f10611595576101008083540402835291602001916115c0565b820191906000526020600020905b8154815290600101906020018083116115a357829003601f168201915b505050505081565b60008073ffffffffffffffffffffffffffffffffffffffff168273ffffffffffffffffffffffffffffffffffffffff161415611639576040517f08c379a000000000000000000000000000000000000000000000000000000000815260040161163090614c40565b60405180910390fd5b600360008373ffffffffffffffffffffffffffffffffffffffff1673ffffffffffffffffffffffffffffffffffffffff168152602001908152602001600020549050919050565b600760009054906101000a900473ffffffffffffffffffffffffffffffffffffffff1681565b6000600760009054906101000a900473ffffffffffffffffffffffffffffffffffffffff1673ffffffffffffffffffffffffffffffffffffffff163373ffffffffffffffffffffffffffffffffffffffff1614905090565b600f81805160208101820180518482526020830160208501208183528095505050505050600091509050805461173390614810565b80601f016020809104026020016040519081016040528092919081815260200182805461175f90614810565b80156117ac5780601f10611781576101008083540402835291602001916117ac565b820191906000526020600020905b81548152906001019060200180831161178f57829003601f168201915b505050505081565b3373ffffffffffffffffffffffffffffffffffffffff16600c85856040516117dd9291906147c8565b908152602001604051809103902060009054906101000a900473ffffffffffffffffffffffffffffffffffffffff1673ffffffffffffffffffffffffffffffffffffffff161461182c57600080fd5b8181601086866040516118409291906147c8565b9081526020016040518091039020919061185b929190613d2a565b5050505050565b60606001805461187190614810565b80601f016020809104026020016040519081016040528092919081815260200182805461189d90614810565b80156118ea5780601f106118bf576101008083540402835291602001916118ea565b820191906000526020600020905b8154815290600101906020018083116118cd57829003601f168201915b5050505050905090565b6119066118ff612ac9565b8383612ecf565b5050565b61191b611915612ac9565b83612b8a565b61195a576040517f08c379a000000000000000000000000000000000000000000000000000000000815260040161195190614a6a565b60405180910390fd5b6119668484848461303c565b50505050565b6000600c83836040516119809291906147c8565b908152602001604051809103902060009054906101000a900473ffffffffffffffffffffffffffffffffffffffff16905092915050565b600c84846040516119c99291906147c8565b908152602001604051809103902060009054906101000a900473ffffffffffffffffffffffffffffffffffffffff1673ffffffffffffffffffffffffffffffffffffffff163373ffffffffffffffffffffffffffffffffffffffff1614611a5c576040517f82b4290000000000000000000000000000000000000000000000000000000000815260040160405180910390fd5b8181600d8686604051611a709291906147c8565b90815260200160405180910390209190611a8b929190613d2a565b5050505050565b6010818051602081018201805184825260208301602085012081835280955050505050506000915090508054611ac790614810565b80601f0160208091040260200160405190810160405280929190818152602001828054611af390614810565b8015611b405780601f10611b1557610100808354040283529160200191611b40565b820191906000526020600020905b815481529060010190602001808311611b2357829003601f168201915b505050505081565b6060611b5382612a5d565b611b92576040517f08c379a0000000000000000000000000000000000000000000000000000000008152600401611b8990614cd2565b60405180910390fd5b6000600660008481526020019081526020016000208054611bb290614810565b80601f0160208091040260200160405190810160405280929190818152602001828054611bde90614810565b8015611c2b5780601f10611c0057610100808354040283529160200191611c2b565b820191906000526020600020905b815481529060010190602001808311611c0e57829003601f168201915b505050505090506000611c3c613098565b9050600081511415611c52578192505050611c95565b600082511115611c87578082604051602001611c6f929190614d23565b60405160208183030381529060405292505050611c95565b611c90846130af565b925050505b919050565b3373ffffffffffffffffffffffffffffffffffffffff16600c8585604051611cc39291906147c8565b908152602001604051809103902060009054906101000a900473ffffffffffffffffffffffffffffffffffffffff1673ffffffffffffffffffffffffffffffffffffffff1614611d1257600080fd5b8181600e8686604051611d269291906147c8565b90815260200160405180910390209190611d41929190613d2a565b5050505050565b600e818051602081018201805184825260208301602085012081835280955050505050506000915090508054611d7d90614810565b80601f0160208091040260200160405190810160405280929190818152602001828054611da990614810565b8015611df65780601f10611dcb57610100808354040283529160200191611df6565b820191906000526020600020905b815481529060010190602001808311611dd957829003601f168201915b505050505081565b6000600560008473ffffffffffffffffffffffffffffffffffffffff1673ffffffffffffffffffffffffffffffffffffffff16815260200190815260200160002060008373ffffffffffffffffffffffffffffffffffffffff1673ffffffffffffffffffffffffffffffffffffffff16815260200190815260200160002060009054906101000a900460ff16905092915050565b60098054611e9f90614810565b80601f0160208091040260200160405190810160405280929190818152602001828054611ecb90614810565b8015611f185780601f10611eed57610100808354040283529160200191611f18565b820191906000526020600020905b815481529060010190602001808311611efb57829003601f168201915b505050505081565b60006003611f7184848080601f016020809104026020016040519081016040528093929190818152602001838380828437600081840152601f19601f82011690508083019250505050505050613156565b10158015611fcc5750600a611fc984848080601f016020809104026020016040519081016040528093929190818152602001838380828437600081840152601f19601f82011690508083019250505050505050613156565b11155b905092915050565b600073ffffffffffffffffffffffffffffffffffffffff16600c8383604051611ffe9291906147c8565b908152602001604051809103902060009054906101000a900473ffffffffffffffffffffffffffffffffffffffff1673ffffffffffffffffffffffffffffffffffffffff161461207a576040517f3a81d6fc00000000000000000000000000000000000000000000000000000000815260040160405180910390fd5b6120848282611f20565b6120c75781816040517f7f19f48d0000000000000000000000000000000000000000000000000000000081526004016120be929190614d74565b60405180910390fd5b600073ffffffffffffffffffffffffffffffffffffffff16600c83836040516120f19291906147c8565b908152602001604051809103902060009054906101000a900473ffffffffffffffffffffffffffffffffffffffff1673ffffffffffffffffffffffffffffffffffffffff161461214057600080fd5b600061214c838361281b565b905080341015612191576040517f08c379a000000000000000000000000000000000000000000000000000000000815260040161218890614de4565b60405180910390fd5b6000838360096040516020016121a993929190614ee4565b60405160208183030381529060405290506000600a82600b6040516020016121d393929190614f15565b604051602081830303815290604052905060006121f0600861330b565b9050600061224187878080601f016020809104026020016040519081016040528093929190818152602001838380828437600081840152601f19601f82011690508083019250505050505050613156565b9050600061224e82613319565b9050612342604051806060016040528060318152602001615aba6031913989898080601f016020809104026020016040519081016040528093929190818152602001838380828437600081840152601f19601f82011690508083019250505050505050600980546122be90614810565b80601f01602080910402602001604051908101604052809291908181526020018280546122ea90614810565b80156123375780601f1061230c57610100808354040283529160200191612337565b820191906000526020600020905b81548152906001019060200180831161231a57829003601f168201915b50505050508661347a565b6000612378866123518761351c565b84604051602001612364939291906150c2565b60405160208183030381529060405261351c565b905060008160405160200161238d919061516b565b60405160208183030381529060405290506123bf604051806060016040528060398152602001615a816039913961295a565b6123fe6040518060400160405280600e81526020017f46696e616c20746f6b656e555249000000000000000000000000000000000000815250826128be565b61241f604051806060016040528060398152602001615aeb6039913961295a565b6124293386613695565b61243385826136b3565b33600c8b8b6040516124469291906147c8565b908152602001604051809103902060006101000a81548173ffffffffffffffffffffffffffffffffffffffff021916908373ffffffffffffffffffffffffffffffffffffffff1602179055506124d16040518060400160405280601881526020017f257320686173207265676973746572206120646f6d61696e000000000000000081525033613727565b6125516040518060400160405280600b81526020017f25732068617320636f7374000000000000000000000000000000000000000000815250600c8c8c60405161251c9291906147c8565b908152602001604051809103902060009054906101000a900473ffffffffffffffffffffffffffffffffffffffff168a6137c3565b8989601260008881526020019081526020016000209190612573929190613d2a565b5061257e6008613862565b50505050505050505050565b6060600e838360405161259e9291906147c8565b908152602001604051809103902080546125b790614810565b80601f01602080910402602001604051908101604052809291908181526020018280546125e390614810565b80156126305780601f1061260557610100808354040283529160200191612630565b820191906000526020600020905b81548152906001019060200180831161261357829003601f168201915b5050505050905092915050565b606061267d6040518060400160405280601f81526020017f47657474696e6720616c6c206e616d65732066726f6d20636f6e74726163740081525061295a565b6000612689600861330b565b67ffffffffffffffff8111156126a2576126a1614293565b5b6040519080825280602002602001820160405280156126d557816020015b60608152602001906001900390816126c05790505b50905060005b6126e5600861330b565b8110156128135760126000828152602001908152602001600020805461270a90614810565b80601f016020809104026020016040519081016040528092919081815260200182805461273690614810565b80156127835780601f1061275857610100808354040283529160200191612783565b820191906000526020600020905b81548152906001019060200180831161276657829003601f168201915b505050505082828151811061279b5761279a61518d565b5b60200260200101819052506128006040518060400160405280601781526020017f4e616d6520666f7220746f6b656e202564206973202573000000000000000000815250828484815181106127f3576127f261518d565b5b6020026020010151613878565b808061280b906151eb565b9150506126db565b508091505090565b60008061286b84848080601f016020809104026020016040519081016040528093929190818152602001838380828437600081840152601f19601f82011690508083019250505050505050613156565b90506000811161287a57600080fd5b60038114156128935766b1a2bc2ec500009150506128b8565b60048114156128ac57666a94d74f4300009150506128b8565b662386f26fc100009150505b92915050565b61295682826040516024016128d4929190615234565b6040516020818303038152906040527f4b5c4277000000000000000000000000000000000000000000000000000000007bffffffffffffffffffffffffffffffffffffffffffffffffffffffff19166020820180517bffffffffffffffffffffffffffffffffffffffffffffffffffffffff8381831617835250505050613917565b5050565b6129f08160405160240161296e9190613fb2565b6040516020818303038152906040527f41304fac000000000000000000000000000000000000000000000000000000007bffffffffffffffffffffffffffffffffffffffffffffffffffffffff19166020820180517bffffffffffffffffffffffffffffffffffffffffffffffffffffffff8381831617835250505050613917565b50565b60007f01ffc9a7000000000000000000000000000000000000000000000000000000007bffffffffffffffffffffffffffffffffffffffffffffffffffffffff1916827bffffffffffffffffffffffffffffffffffffffffffffffffffffffff1916149050919050565b60008073ffffffffffffffffffffffffffffffffffffffff166002600084815260200190815260200160002060009054906101000a900473ffffffffffffffffffffffffffffffffffffffff1673ffffffffffffffffffffffffffffffffffffffff1614159050919050565b600033905090565b816004600083815260200190815260200160002060006101000a81548173ffffffffffffffffffffffffffffffffffffffff021916908373ffffffffffffffffffffffffffffffffffffffff160217905550808273ffffffffffffffffffffffffffffffffffffffff16612b4483611460565b73ffffffffffffffffffffffffffffffffffffffff167f8c5be1e5ebec7d5bd14f71427d1e84f3dd0314c0f7b2291e5b200ac8c7c3b92560405160405180910390a45050565b6000612b9582612a5d565b612bd4576040517f08c379a0000000000000000000000000000000000000000000000000000000008152600401612bcb906152dd565b60405180910390fd5b6000612bdf83611460565b90508073ffffffffffffffffffffffffffffffffffffffff168473ffffffffffffffffffffffffffffffffffffffff161480612c4e57508373ffffffffffffffffffffffffffffffffffffffff16612c3684610c2b565b73ffffffffffffffffffffffffffffffffffffffff16145b80612c5f5750612c5e8185611dfe565b5b91505092915050565b8273ffffffffffffffffffffffffffffffffffffffff16612c8882611460565b73ffffffffffffffffffffffffffffffffffffffff1614612cde576040517f08c379a0000000000000000000000000000000000000000000000000000000008152600401612cd59061536f565b60405180910390fd5b600073ffffffffffffffffffffffffffffffffffffffff168273ffffffffffffffffffffffffffffffffffffffff161415612d4e576040517f08c379a0000000000000000000000000000000000000000000000000000000008152600401612d4590615401565b60405180910390fd5b612d59838383613940565b612d64600082612ad1565b6001600360008573ffffffffffffffffffffffffffffffffffffffff1673ffffffffffffffffffffffffffffffffffffffff1681526020019081526020016000206000828254612db49190615421565b925050819055506001600360008473ffffffffffffffffffffffffffffffffffffffff1673ffffffffffffffffffffffffffffffffffffffff1681526020019081526020016000206000828254612e0b9190615455565b92505081905550816002600083815260200190815260200160002060006101000a81548173ffffffffffffffffffffffffffffffffffffffff021916908373ffffffffffffffffffffffffffffffffffffffff160217905550808273ffffffffffffffffffffffffffffffffffffffff168473ffffffffffffffffffffffffffffffffffffffff167fddf252ad1be2c89b69c2b068fc378daa952ba7f163c4a11628f55a4df523b3ef60405160405180910390a4612eca838383613945565b505050565b8173ffffffffffffffffffffffffffffffffffffffff168373ffffffffffffffffffffffffffffffffffffffff161415612f3e576040517f08c379a0000000000000000000000000000000000000000000000000000000008152600401612f35906154f7565b60405180910390fd5b80600560008573ffffffffffffffffffffffffffffffffffffffff1673ffffffffffffffffffffffffffffffffffffffff16815260200190815260200160002060008473ffffffffffffffffffffffffffffffffffffffff1673ffffffffffffffffffffffffffffffffffffffff16815260200190815260200160002060006101000a81548160ff0219169083151502179055508173ffffffffffffffffffffffffffffffffffffffff168373ffffffffffffffffffffffffffffffffffffffff167f17307eab39ab6107e8899845ad3d59bd9653f200f220920489ca2b5937696c318360405161302f9190614074565b60405180910390a3505050565b613047848484612c68565b6130538484848461394a565b613092576040517f08c379a000000000000000000000000000000000000000000000000000000000815260040161308990615589565b60405180910390fd5b50505050565b606060405180602001604052806000815250905090565b60606130ba82612a5d565b6130f9576040517f08c379a00000000000000000000000000000000000000000000000000000000081526004016130f09061561b565b60405180910390fd5b6000613103613098565b90506000815111613123576040518060200160405280600081525061314e565b8061312d84613319565b60405160200161313e929190614d23565b6040516020818303038152906040525b915050919050565b60008060008084519050600092505b808210156133005760008583815181106131825761318161518d565b5b602001015160f81c60f81b9050608060f81b817effffffffffffffffffffffffffffffffffffffffffffffffffffffffffffff191610156131d1576001836131ca9190615455565b92506132ec565b60e060f81b817effffffffffffffffffffffffffffffffffffffffffffffffffffffffffffff191610156132135760028361320c9190615455565b92506132eb565b60f060f81b817effffffffffffffffffffffffffffffffffffffffffffffffffffffffffffff191610156132555760038361324e9190615455565b92506132ea565b60f8801b817effffffffffffffffffffffffffffffffffffffffffffffffffffffffffffff191610156132965760048361328f9190615455565b92506132e9565b60fc60f81b817effffffffffffffffffffffffffffffffffffffffffffffffffffffffffffff191610156132d8576005836132d19190615455565b92506132e8565b6006836132e59190615455565b92505b5b5b5b5b5082806132f8906151eb565b935050613165565b829350505050919050565b600081600001549050919050565b60606000821415613361576040518060400160405280600181526020017f30000000000000000000000000000000000000000000000000000000000000008152509050613475565b600082905060005b6000821461339357808061337c906151eb565b915050600a8261338c919061566a565b9150613369565b60008167ffffffffffffffff8111156133af576133ae614293565b5b6040519080825280601f01601f1916602001820160405280156133e15781602001600182028036833780820191505090505b5090505b6000851461346e576001826133fa9190615421565b9150600a85613409919061569b565b60306134159190615455565b60f81b81838151811061342b5761342a61518d565b5b60200101907effffffffffffffffffffffffffffffffffffffffffffffffffffffffffffff1916908160001a905350600a85613467919061566a565b94506133e5565b8093505050505b919050565b6135168484848460405160240161349494939291906156cc565b6040516020818303038152906040527f9fd009f5000000000000000000000000000000000000000000000000000000007bffffffffffffffffffffffffffffffffffffffffffffffffffffffff19166020820180517bffffffffffffffffffffffffffffffffffffffffffffffffffffffff8381831617835250505050613917565b50505050565b606060008251141561353f57604051806020016040528060008152509050613690565b6000604051806060016040528060408152602001615b24604091399050600060036002855161356e9190615455565b613578919061566a565b60046135849190615726565b905060006020826135959190615455565b67ffffffffffffffff8111156135ae576135ad614293565b5b6040519080825280601f01601f1916602001820160405280156135e05781602001600182028036833780820191505090505b509050818152600183018586518101602084015b8183101561364f576003830192508251603f8160121c168501518253600182019150603f81600c1c168501518253600182019150603f8160061c168501518253600182019150603f81168501518253600182019150506135f4565b600389510660018114613669576002811461367957613684565b613d3d60f01b6002830352613684565b603d60f81b60018303525b50505050508093505050505b919050565b6136af828260405180602001604052806000815250613ad2565b5050565b6136bc82612a5d565b6136fb576040517f08c379a00000000000000000000000000000000000000000000000000000000081526004016136f2906157f2565b60405180910390fd5b80600660008481526020019081526020016000209080519060200190613722929190613db0565b505050565b6137bf828260405160240161373d929190615812565b6040516020818303038152906040527f319af333000000000000000000000000000000000000000000000000000000007bffffffffffffffffffffffffffffffffffffffffffffffffffffffff19166020820180517bffffffffffffffffffffffffffffffffffffffffffffffffffffffff8381831617835250505050613917565b5050565b61385d8383836040516024016137db93929190615842565b6040516020818303038152906040527f07c81217000000000000000000000000000000000000000000000000000000007bffffffffffffffffffffffffffffffffffffffffffffffffffffffff19166020820180517bffffffffffffffffffffffffffffffffffffffffffffffffffffffff8381831617835250505050613917565b505050565b6001816000016000828254019250508190555050565b61391283838360405160240161389093929190615880565b6040516020818303038152906040527fa3f5c739000000000000000000000000000000000000000000000000000000007bffffffffffffffffffffffffffffffffffffffffffffffffffffffff19166020820180517bffffffffffffffffffffffffffffffffffffffffffffffffffffffff8381831617835250505050613917565b505050565b60008151905060006a636f6e736f6c652e6c6f679050602083016000808483855afa5050505050565b505050565b505050565b600061396b8473ffffffffffffffffffffffffffffffffffffffff16613b2d565b15613ac5578373ffffffffffffffffffffffffffffffffffffffff1663150b7a02613994612ac9565b8786866040518563ffffffff1660e01b81526004016139b6949392919061591a565b6020604051808303816000875af19250505080156139f257506040513d601f19601f820116820180604052508101906139ef919061597b565b60015b613a75573d8060008114613a22576040519150601f19603f3d011682016040523d82523d6000602084013e613a27565b606091505b50600081511415613a6d576040517f08c379a0000000000000000000000000000000000000000000000000000000008152600401613a6490615589565b60405180910390fd5b805181602001fd5b63150b7a0260e01b7bffffffffffffffffffffffffffffffffffffffffffffffffffffffff1916817bffffffffffffffffffffffffffffffffffffffffffffffffffffffff191614915050613aca565b600190505b949350505050565b613adc8383613b50565b613ae9600084848461394a565b613b28576040517f08c379a0000000000000000000000000000000000000000000000000000000008152600401613b1f90615589565b60405180910390fd5b505050565b6000808273ffffffffffffffffffffffffffffffffffffffff163b119050919050565b600073ffffffffffffffffffffffffffffffffffffffff168273ffffffffffffffffffffffffffffffffffffffff161415613bc0576040517f08c379a0000000000000000000000000000000000000000000000000000000008152600401613bb7906159f4565b60405180910390fd5b613bc981612a5d565b15613c09576040517f08c379a0000000000000000000000000000000000000000000000000000000008152600401613c0090615a60565b60405180910390fd5b613c1560008383613940565b6001600360008473ffffffffffffffffffffffffffffffffffffffff1673ffffffffffffffffffffffffffffffffffffffff1681526020019081526020016000206000828254613c659190615455565b92505081905550816002600083815260200190815260200160002060006101000a81548173ffffffffffffffffffffffffffffffffffffffff021916908373ffffffffffffffffffffffffffffffffffffffff160217905550808273ffffffffffffffffffffffffffffffffffffffff16600073ffffffffffffffffffffffffffffffffffffffff167fddf252ad1be2c89b69c2b068fc378daa952ba7f163c4a11628f55a4df523b3ef60405160405180910390a4613d2660008383613945565b5050565b828054613d3690614810565b90600052602060002090601f016020900481019282613d585760008555613d9f565b82601f10613d7157803560ff1916838001178555613d9f565b82800160010185558215613d9f579182015b82811115613d9e578235825591602001919060010190613d83565b5b509050613dac9190613e36565b5090565b828054613dbc90614810565b90600052602060002090601f016020900481019282613dde5760008555613e25565b82601f10613df757805160ff1916838001178555613e25565b82800160010185558215613e25579182015b82811115613e24578251825591602001919060010190613e09565b5b509050613e329190613e36565b5090565b5b80821115613e4f576000816000905550600101613e37565b5090565b6000604051905090565b600080fd5b600080fd5b600080fd5b600080fd5b600080fd5b60008083601f840112613e8c57613e8b613e67565b5b8235905067ffffffffffffffff811115613ea957613ea8613e6c565b5b602083019150836001820283011115613ec557613ec4613e71565b5b9250929050565b60008060208385031215613ee357613ee2613e5d565b5b600083013567ffffffffffffffff811115613f0157613f00613e62565b5b613f0d85828601613e76565b92509250509250929050565b600081519050919050565b600082825260208201905092915050565b60005b83811015613f53578082015181840152602081019050613f38565b83811115613f62576000848401525b50505050565b6000601f19601f8301169050919050565b6000613f8482613f19565b613f8e8185613f24565b9350613f9e818560208601613f35565b613fa781613f68565b840191505092915050565b60006020820190508181036000830152613fcc8184613f79565b905092915050565b60007fffffffff0000000000000000000000000000000000000000000000000000000082169050919050565b61400981613fd4565b811461401457600080fd5b50565b60008135905061402681614000565b92915050565b60006020828403121561404257614041613e5d565b5b600061405084828501614017565b91505092915050565b60008115159050919050565b61406e81614059565b82525050565b60006020820190506140896000830184614065565b92915050565b6000819050919050565b6140a28161408f565b81146140ad57600080fd5b50565b6000813590506140bf81614099565b92915050565b6000602082840312156140db576140da613e5d565b5b60006140e9848285016140b0565b91505092915050565b600073ffffffffffffffffffffffffffffffffffffffff82169050919050565b600061411d826140f2565b9050919050565b61412d81614112565b82525050565b60006020820190506141486000830184614124565b92915050565b61415781614112565b811461416257600080fd5b50565b6000813590506141748161414e565b92915050565b6000806040838503121561419157614190613e5d565b5b600061419f85828601614165565b92505060206141b0858286016140b0565b9150509250929050565b600080600080604085870312156141d4576141d3613e5d565b5b600085013567ffffffffffffffff8111156141f2576141f1613e62565b5b6141fe87828801613e76565b9450945050602085013567ffffffffffffffff81111561422157614220613e62565b5b61422d87828801613e76565b925092505092959194509250565b60008060006060848603121561425457614253613e5d565b5b600061426286828701614165565b935050602061427386828701614165565b9250506040614284868287016140b0565b9150509250925092565b600080fd5b7f4e487b7100000000000000000000000000000000000000000000000000000000600052604160045260246000fd5b6142cb82613f68565b810181811067ffffffffffffffff821117156142ea576142e9614293565b5b80604052505050565b60006142fd613e53565b905061430982826142c2565b919050565b600067ffffffffffffffff82111561432957614328614293565b5b61433282613f68565b9050602081019050919050565b82818337600083830152505050565b600061436161435c8461430e565b6142f3565b90508281526020810184848401111561437d5761437c61428e565b5b61438884828561433f565b509392505050565b600082601f8301126143a5576143a4613e67565b5b81356143b584826020860161434e565b91505092915050565b6000602082840312156143d4576143d3613e5d565b5b600082013567ffffffffffffffff8111156143f2576143f1613e62565b5b6143fe84828501614390565b91505092915050565b60006020828403121561441d5761441c613e5d565b5b600061442b84828501614165565b91505092915050565b61443d8161408f565b82525050565b60006020820190506144586000830184614434565b92915050565b6000614469826140f2565b9050919050565b6144798161445e565b82525050565b60006020820190506144946000830184614470565b92915050565b6144a381614059565b81146144ae57600080fd5b50565b6000813590506144c08161449a565b92915050565b600080604083850312156144dd576144dc613e5d565b5b60006144eb85828601614165565b92505060206144fc858286016144b1565b9150509250929050565b600067ffffffffffffffff82111561452157614520614293565b5b61452a82613f68565b9050602081019050919050565b600061454a61454584614506565b6142f3565b9050828152602081018484840111156145665761456561428e565b5b61457184828561433f565b509392505050565b600082601f83011261458e5761458d613e67565b5b813561459e848260208601614537565b91505092915050565b600080600080608085870312156145c1576145c0613e5d565b5b60006145cf87828801614165565b94505060206145e087828801614165565b93505060406145f1878288016140b0565b925050606085013567ffffffffffffffff81111561461257614611613e62565b5b61461e87828801614579565b91505092959194509250565b6000806040838503121561464157614640613e5d565b5b600061464f85828601614165565b925050602061466085828601614165565b9150509250929050565b600081519050919050565b600082825260208201905092915050565b6000819050602082019050919050565b600082825260208201905092915050565b60006146b282613f19565b6146bc8185614696565b93506146cc818560208601613f35565b6146d581613f68565b840191505092915050565b60006146ec83836146a7565b905092915050565b6000602082019050919050565b600061470c8261466a565b6147168185614675565b93508360208202850161472885614686565b8060005b85811015614764578484038952815161474585826146e0565b9450614750836146f4565b925060208a0199505060018101905061472c565b50829750879550505050505092915050565b600060208201905081810360008301526147908184614701565b905092915050565b600081905092915050565b60006147af8385614798565b93506147bc83858461433f565b82840190509392505050565b60006147d58284866147a3565b91508190509392505050565b7f4e487b7100000000000000000000000000000000000000000000000000000000600052602260045260246000fd5b6000600282049050600182168061482857607f821691505b6020821081141561483c5761483b6147e1565b5b50919050565b7f4552433732313a20617070726f76656420717565727920666f72206e6f6e657860008201527f697374656e7420746f6b656e0000000000000000000000000000000000000000602082015250565b600061489e602c83613f24565b91506148a982614842565b604082019050919050565b600060208201905081810360008301526148cd81614891565b9050919050565b7f4552433732313a20617070726f76616c20746f2063757272656e74206f776e6560008201527f7200000000000000000000000000000000000000000000000000000000000000602082015250565b6000614930602183613f24565b915061493b826148d4565b604082019050919050565b6000602082019050818103600083015261495f81614923565b9050919050565b7f4552433732313a20617070726f76652063616c6c6572206973206e6f74206f7760008201527f6e6572206e6f7220617070726f76656420666f7220616c6c0000000000000000602082015250565b60006149c2603883613f24565b91506149cd82614966565b604082019050919050565b600060208201905081810360008301526149f1816149b5565b9050919050565b7f4552433732313a207472616e736665722063616c6c6572206973206e6f74206f60008201527f776e6572206e6f7220617070726f766564000000000000000000000000000000602082015250565b6000614a54603183613f24565b9150614a5f826149f8565b604082019050919050565b60006020820190508181036000830152614a8381614a47565b9050919050565b600081905092915050565b50565b6000614aa5600083614a8a565b9150614ab082614a95565b600082019050919050565b6000614ac682614a98565b9150819050919050565b7f4661696c656420746f207769746864726177204d617469630000000000000000600082015250565b6000614b06601883613f24565b9150614b1182614ad0565b602082019050919050565b60006020820190508181036000830152614b3581614af9565b9050919050565b7f4552433732313a206f776e657220717565727920666f72206e6f6e657869737460008201527f656e7420746f6b656e0000000000000000000000000000000000000000000000602082015250565b6000614b98602983613f24565b9150614ba382614b3c565b604082019050919050565b60006020820190508181036000830152614bc781614b8b565b9050919050565b7f4552433732313a2062616c616e636520717565727920666f7220746865207a6560008201527f726f206164647265737300000000000000000000000000000000000000000000602082015250565b6000614c2a602a83613f24565b9150614c3582614bce565b604082019050919050565b60006020820190508181036000830152614c5981614c1d565b9050919050565b7f45524337323155524953746f726167653a2055524920717565727920666f722060008201527f6e6f6e6578697374656e7420746f6b656e000000000000000000000000000000602082015250565b6000614cbc603183613f24565b9150614cc782614c60565b604082019050919050565b60006020820190508181036000830152614ceb81614caf565b9050919050565b6000614cfd82613f19565b614d078185614798565b9350614d17818560208601613f35565b80840191505092915050565b6000614d2f8285614cf2565b9150614d3b8284614cf2565b91508190509392505050565b6000614d538385613f24565b9350614d6083858461433f565b614d6983613f68565b840190509392505050565b60006020820190508181036000830152614d8f818486614d47565b90509392505050565b7f4e6f7420656e6f756768204d6174696320706169640000000000000000000000600082015250565b6000614dce601583613f24565b9150614dd982614d98565b602082019050919050565b60006020820190508181036000830152614dfd81614dc1565b9050919050565b7f2e00000000000000000000000000000000000000000000000000000000000000600082015250565b6000614e3a600183614798565b9150614e4582614e04565b600182019050919050565b60008190508160005260206000209050919050565b60008154614e7281614810565b614e7c8186614798565b94506001821660008114614e975760018114614ea857614edb565b60ff19831686528186019350614edb565b614eb185614e50565b60005b83811015614ed357815481890152600182019150602081019050614eb4565b838801955050505b50505092915050565b6000614ef18285876147a3565b9150614efc82614e2d565b9150614f088284614e65565b9150819050949350505050565b6000614f218286614e65565b9150614f2d8285614cf2565b9150614f398284614e65565b9150819050949350505050565b7f7b226e616d65223a202200000000000000000000000000000000000000000000600082015250565b6000614f7c600a83614798565b9150614f8782614f46565b600a82019050919050565b7f222c20226465736372697074696f6e223a20224120646f6d61696e206f6e207460008201527f68652050494b41206e616d652073657276696365222c2022696d616765223a2060208201527f22646174613a696d6167652f7376672b786d6c3b6261736536342c0000000000604082015250565b6000615014605b83614798565b915061501f82614f92565b605b82019050919050565b7f222c226c656e677468223a220000000000000000000000000000000000000000600082015250565b6000615060600c83614798565b915061506b8261502a565b600c82019050919050565b7f227d000000000000000000000000000000000000000000000000000000000000600082015250565b60006150ac600283614798565b91506150b782615076565b600282019050919050565b60006150cd82614f6f565b91506150d98286614cf2565b91506150e482615007565b91506150f08285614cf2565b91506150fb82615053565b91506151078284614cf2565b91506151128261509f565b9150819050949350505050565b7f646174613a6170706c69636174696f6e2f6a736f6e3b6261736536342c000000600082015250565b6000615155601d83614798565b91506151608261511f565b601d82019050919050565b600061517682615148565b91506151828284614cf2565b915081905092915050565b7f4e487b7100000000000000000000000000000000000000000000000000000000600052603260045260246000fd5b7f4e487b7100000000000000000000000000000000000000000000000000000000600052601160045260246000fd5b60006151f68261408f565b91507fffffffffffffffffffffffffffffffffffffffffffffffffffffffffffffffff821415615229576152286151bc565b5b600182019050919050565b6000604082019050818103600083015261524e8185613f79565b905081810360208301526152628184613f79565b90509392505050565b7f4552433732313a206f70657261746f7220717565727920666f72206e6f6e657860008201527f697374656e7420746f6b656e0000000000000000000000000000000000000000602082015250565b60006152c7602c83613f24565b91506152d28261526b565b604082019050919050565b600060208201905081810360008301526152f6816152ba565b9050919050565b7f4552433732313a207472616e736665722066726f6d20696e636f72726563742060008201527f6f776e6572000000000000000000000000000000000000000000000000000000602082015250565b6000615359602583613f24565b9150615364826152fd565b604082019050919050565b600060208201905081810360008301526153888161534c565b9050919050565b7f4552433732313a207472616e7366657220746f20746865207a65726f2061646460008201527f7265737300000000000000000000000000000000000000000000000000000000602082015250565b60006153eb602483613f24565b91506153f68261538f565b604082019050919050565b6000602082019050818103600083015261541a816153de565b9050919050565b600061542c8261408f565b91506154378361408f565b92508282101561544a576154496151bc565b5b828203905092915050565b60006154608261408f565b915061546b8361408f565b9250827fffffffffffffffffffffffffffffffffffffffffffffffffffffffffffffffff038211156154a05761549f6151bc565b5b828201905092915050565b7f4552433732313a20617070726f766520746f2063616c6c657200000000000000600082015250565b60006154e1601983613f24565b91506154ec826154ab565b602082019050919050565b60006020820190508181036000830152615510816154d4565b9050919050565b7f4552433732313a207472616e7366657220746f206e6f6e20455243373231526560008201527f63656976657220696d706c656d656e7465720000000000000000000000000000602082015250565b6000615573603283613f24565b915061557e82615517565b604082019050919050565b600060208201905081810360008301526155a281615566565b9050919050565b7f4552433732314d657461646174613a2055524920717565727920666f72206e6f60008201527f6e6578697374656e7420746f6b656e0000000000000000000000000000000000602082015250565b6000615605602f83613f24565b9150615610826155a9565b604082019050919050565b60006020820190508181036000830152615634816155f8565b9050919050565b7f4e487b7100000000000000000000000000000000000000000000000000000000600052601260045260246000fd5b60006156758261408f565b91506156808361408f565b9250826156905761568f61563b565b5b828204905092915050565b60006156a68261408f565b91506156b18361408f565b9250826156c1576156c061563b565b5b828206905092915050565b600060808201905081810360008301526156e68187613f79565b905081810360208301526156fa8186613f79565b9050818103604083015261570e8185613f79565b905061571d6060830184614434565b95945050505050565b60006157318261408f565b915061573c8361408f565b9250817fffffffffffffffffffffffffffffffffffffffffffffffffffffffffffffffff0483118215151615615775576157746151bc565b5b828202905092915050565b7f45524337323155524953746f726167653a2055524920736574206f66206e6f6e60008201527f6578697374656e7420746f6b656e000000000000000000000000000000000000602082015250565b60006157dc602e83613f24565b91506157e782615780565b604082019050919050565b6000602082019050818103600083015261580b816157cf565b9050919050565b6000604082019050818103600083015261582c8185613f79565b905061583b6020830184614124565b9392505050565b6000606082019050818103600083015261585c8186613f79565b905061586b6020830185614124565b6158786040830184614434565b949350505050565b6000606082019050818103600083015261589a8186613f79565b90506158a96020830185614434565b81810360408301526158bb8184613f79565b9050949350505050565b600081519050919050565b600082825260208201905092915050565b60006158ec826158c5565b6158f681856158d0565b9350615906818560208601613f35565b61590f81613f68565b840191505092915050565b600060808201905061592f6000830187614124565b61593c6020830186614124565b6159496040830185614434565b818103606083015261595b81846158e1565b905095945050505050565b60008151905061597581614000565b92915050565b60006020828403121561599157615990613e5d565b5b600061599f84828501615966565b91505092915050565b7f4552433732313a206d696e7420746f20746865207a65726f2061646472657373600082015250565b60006159de602083613f24565b91506159e9826159a8565b602082019050919050565b60006020820190508181036000830152615a0d816159d1565b9050919050565b7f4552433732313a20746f6b656e20616c7265616479206d696e74656400000000600082015250565b6000615a4a601c83613f24565b9150615a5582615a14565b602082019050919050565b60006020820190508181036000830152615a7981615a3d565b905091905056fe0a2d2d2d2d2d2d2d2d2d2d2d2d2d2d2d2d2d2d2d2d2d2d2d2d2d2d2d2d2d2d2d2d2d2d2d2d2d2d2d2d2d2d2d2d2d2d2d2d2d2d2d2d2d2d2d2d5265676973746572696e672025732e2573206f6e2074686520636f6e7472616374207769746820746f6b656e49442025642d2d2d2d2d2d2d2d2d2d2d2d2d2d2d2d2d2d2d2d2d2d2d2d2d2d2d2d2d2d2d2d2d2d2d2d2d2d2d2d2d2d2d2d2d2d2d2d2d2d2d2d2d2d2d2d0a4142434445464748494a4b4c4d4e4f505152535455565758595a6162636465666768696a6b6c6d6e6f707172737475767778797a303132333435363738392b2fa26469706673582212201e951cf3f8a284a10a224e52edad8972c0f5b153eef14307a206e194d9b6cfbd64736f6c634300080a00333c73766720786d6c6e733d22687474703a2f2f7777772e77332e6f72672f323030302f737667222077696474683d2232373022206865696768743d22323730222066696c6c3d226e6f6e65223e3c706174682066696c6c3d2275726c282342292220643d224d302030683237307632373048307a222f3e3c646566733e3c66696c7465722069643d22412220636f6c6f722d696e746572706f6c6174696f6e2d66696c746572733d2273524742222066696c746572556e6974733d227573657253706163654f6e55736522206865696768743d22323730222077696474683d22323730223e3c666544726f70536861646f772064783d2230222064793d22312220737464446576696174696f6e3d22322220666c6f6f642d6f7061636974793d222e323235222077696474683d223230302522206865696768743d2232303025222f3e3c2f66696c7465723e3c2f646566733e3c7061746820643d224d37322e3836332034322e393439632d2e3636382d2e3338372d312e3432362d2e35392d322e3139372d2e3539732d312e3532392e3230342d322e3139372e35396c2d31302e30383120362e3033322d362e383520332e3933342d31302e30383120362e303332632d2e3636382e3338372d312e3432362e35392d322e3139372e3539732d312e3532392d2e3230342d322e3139372d2e35396c2d382e3031332d342e37323161342e353220342e35322030203020312d312e3538392d312e363136632d2e3338342d2e3636352d2e3539342d312e3431382d2e3630382d322e313837762d392e3331632d2e3031332d2e3737352e3138352d312e3533382e3537322d322e32303861342e323520342e323520302030203120312e3632352d312e3539356c372e3838342d342e3539632e3636382d2e33383720312e3432362d2e353920322e3139372d2e353973312e3532392e32303420322e3139372e35396c372e38383420342e353961342e353220342e353220302030203120312e35383920312e363136632e3338342e3636352e35393420312e3431382e36303820322e31383776362e3033326c362e38352d342e303635762d362e303332632e3031332d2e3737352d2e3138352d312e3533382d2e3537322d322e32303861342e323520342e32352030203020302d312e3632352d312e3539354c34312e3435362032342e3539632d2e3636382d2e3338372d312e3432362d2e35392d322e3139372d2e3539732d312e3532392e3230342d322e3139372e35396c2d31342e38363420382e36353561342e323520342e32352030203020302d312e36323520312e353935632d2e3338372e36372d2e35383520312e3433342d2e35373220322e3230387631372e343431632d2e3031332e3737352e31383520312e3533382e35373220322e32303861342e323520342e323520302030203020312e36323520312e3539356c31342e38363420382e363535632e3636382e33383720312e3432362e353920322e3139372e353973312e3532392d2e32303420322e3139372d2e35396c31302e3038312d352e39303120362e38352d342e3036352031302e3038312d352e393031632e3636382d2e33383720312e3432362d2e353920322e3139372d2e353973312e3532392e32303420322e3139372e35396c372e38383420342e353961342e353220342e353220302030203120312e35383920312e363136632e3338342e3636352e35393420312e3431382e36303820322e31383776392e333131632e3031332e3737352d2e31383520312e3533382d2e35373220322e32303861342e323520342e32352030203020312d312e36323520312e3539356c2d372e38383420342e373231632d2e3636382e3338372d312e3432362e35392d322e3139372e3539732d312e3532392d2e3230342d322e3139372d2e35396c2d372e3838342d342e353961342e353220342e35322030203020312d312e3538392d312e363136632d2e3338352d2e3636352d2e3539342d312e3431382d2e3630382d322e313837762d362e3033326c2d362e383520342e30363576362e303332632d2e3031332e3737352e31383520312e3533382e35373220322e32303861342e323520342e323520302030203020312e36323520312e3539356c31342e38363420382e363535632e3636382e33383720312e3432362e353920322e3139372e353973312e3532392d2e32303420322e3139372d2e35396c31342e3836342d382e363535632e3635372d2e33393420312e3230342d2e393520312e3538392d312e363136732e3539342d312e3431382e3630392d322e3138375635352e353338632e3031332d2e3737352d2e3138352d312e3533382d2e3537322d322e32303861342e323520342e32352030203020302d312e3632352d312e3539356c2d31342e3939332d382e3738367a222066696c6c3d2223666666222f3e3c646566733e3c6c696e6561724772616469656e742069643d2242222078313d2230222079313d2230222078323d22323730222079323d2232373022206772616469656e74556e6974733d227573657253706163654f6e557365223e3c73746f702073746f702d636f6c6f723d2223636235656565222f3e3c73746f70206f66667365743d2231222073746f702d636f6c6f723d2223306364376534222073746f702d6f7061636974793d222e3939222f3e3c2f6c696e6561724772616469656e743e3c2f646566733e3c7465787420783d2233322e352220793d223233312220666f6e742d73697a653d223237222066696c6c3d2223666666222066696c7465723d2275726c282341292220666f6e742d66616d696c793d22506c7573204a616b617274612053616e732c44656a6156752053616e732c4e6f746f20436f6c6f7220456d6f6a692c4170706c6520436f6c6f7220456d6f6a692c73616e732d73657269662220666f6e742d7765696768743d22626f6c64223e",
  "linkReferences": {},
  "deployedLinkReferences": {}
}